:020000040000fa
:080000000001040000000000f3
:020000040000fa
:100008009a0100009a0100009a0100009a0100007c
:100018009a0100009a0100009a0100009a0100006c
:100028009a0100009a0100009a0100009a0100005c
:100038009a0100009a0100009a0100009a0100004c
:100048009a0100009a0100009a0100009a0100003c
:100058009a0100009a0100009a0100009a0100002c
:100068009a0100009a0100009a0100009a0100001c
:100078009a0100009a0100009a0100009a0100000c
:100088009a0100009a0100009a0100009a010000fc
:100098009a0100009a0100009a0100009a010000ec
:1000a8009a0100009a0100009a0100009a010000dc
:1000b8009a0100009a0100009a0100009a010000cc
:1000c8009a0100009a0100009a0100009a010000bc
:1000d8009a0100009a0100009a0100009a010000ac
:1000e8009a0100009a0100009a0100009a0100009c
:0800f8009a0100009a010000ca
:020000040000fa
:100108009a0100009a0100009a0100009a0100007b
:100118009a0100009a0100009a0100009a0100006b
:100128009a0100009a0100009a0100009a0100005b
:100138009a0100009a0100009a0100009a0100004b
:100148009a0100009a0100009a0100009a0100003b
:100158009a0100009a0100009a0100009a0100002b
:100168009a0100009a0100009a0100009a0100001b
:100178009a0100009a0100009a0100009a0100000b
:100188009a0100009a0100009a0100009a010000fb
:100198009a0100009a0100009a0100009a010000eb
:1001a8009a0100009a0100009a0100009a010000db
:1001b8009a0100009a0100009a0100009a010000cb
:1001c8009a0100009a0100009a0100009a010000bb
:1001d8009a0100009a0100009a0100009a010000ab
:1001e8009a0100009a0100009a0100009a0100009b
:0801f8009a0100009a010000c9
:020000040000fa
:100200006f8020000eff21000e018800000000001a
:10021000000020000000e000020032000001200089
:10022000200288000c000700006020000100200070
:1002300011000700000020000000e0000200320072
:1002400000000200000000009c020200000000000c
:100250000040da000000fe004440a9000020200019
:100260000000e0000300320000002000a001880030
:100270004440a8000000060091018800800078003a
:100280000000eb0015003700e280400032a0b4000f
:100290009101ba00e280400032a0b4009102ba009d
:1002a000e280400032a0b4000002eb00472bde00e9
:1002b000f507b200602ce10004003a000059eb00a1
:1002c0008301e900fdff3e00040037006128e100e2
:1002d000010032000082eb00040007001101ba00a7
:1002e0000200e000e8ff3a00000006003159ba00c1
:1002f0008301e9000c0032002159ba008301e900b2
:10030000080032000400e00003003a00e2804000f0
:1003100032a0b400f5ff370011d9ba008301e9001b
:10032000faff3a008100e800e180400032a0b4000a
:10033000000006000040da000000fe00b102780074
:100340000009eb000002e90007003400b101780069
:100350000328e10002003c008302780004095000f9
:100360000402e900f9ff3c000500780000000600e7
:10037000889fbe008a9fbe008c9fbe008e1f7800a3
:100380004400f800070f2000270288003400f8001e
:10039000811f78000f07780007f02f000338e10075
:1003a00004003200270280004700b30027028800c3
:1003b000a301880019002000804cdd0013002000fc
:1003c00002047800800678008904d100424edd00e6
:1003d000010578000302e90004800800170000000e
:1003e0008a0546004218dd000902e9000480080081
:1003f00010000000000000004620c3003b02520035
:10040000df35c100080440001381c200ab825200f6
:10041000264dc5003e85c400bb00cd00bb80cd008d
:100420003a00ca002a80ca000700c9000580c90036
:10043000ba00cd00ba80cd000a054600020478005b
:100440008301d0008d06e900dfff3c008e077800b5
:100450004f0078003400f9004400f9004f0778009d
:100460004f06be004f05be004f04be000000060050
:100470004600f8005000f8000220200032028800f8
:1004800002002800130020008019dd0002817100a5
:100490008202880001007800010178002600200017
:1004a000470020008301e9000380080007000000e6
:1004b0000110e100040034001102be00920878002f
:1004c000e2307b000489be0087804000121978006a
:1004d0005000f9004600f90000000600821f780075
:1004e000849fbe008a1f78004400f800040f20009b
:1004f00024028800010578000601c3000080e9009d
:100500000080080003000000000000000505f00066
:100510000401f1003200cd000505f0001001f100ea
:100520003200cd004400f9004f0578004f02be00b4
:080530004f00780000000600f6
:020000040000fa
:100538000600fa000000eb00000f7800000022001f
:100548001007980000002200200798000000eb0028
:10055800000f7800090037001e0090001000780096
:100568008080d1001e009000010878001e009000d5
:100578000080e800100798001e0fe800f00f200028
:100588009e007800808f5000f3ff3400c01f2200c7
:1005980010079800c03f2200200798000010200094
:1005a800000f78000e0037001e00900090007800c1
:1005b8002e009000010878001e0090000080e900dd
:1005c800100798002e0090008000eb0011009800a2
:1005d8002e00900064005000200798001e0fe900cc
:1005e8001e0078000000e000efff3c000000200043
:1005f8008000780000402800810178000001780020
:10060800010022008000200057ff0700010022009f
:100618008000200094ff0700020022000100220051
:1006280000102000abff070002802000010022001c
:10063800000820003fff07000140800070022000f2
:100648000088b90000007800cf80de0010408800e4
:0806580021408800ffff37007c
:020000040000fa
:10080000ff7f000000000000f67f0000dcfc00001d
:10081000d97f0000b8f90000a77f000095f600001e
:10082000627f000074f300000a7f000055f00000b2
:100830009d7e000038ed00001e7e00001eea0000d4
:100840008a7d000007e70000e47c0000f4e300007c
:100850002a7c0000e6e000005d7b0000dcdd00009b
:100860007d7a0000d8da00008a790000d9d700002c
:1008700084780000e1d400006c770000efd1000024
:100880004276000004cf00000575000021cc000076
:10089000b673000046c900005572000073c6000020
:1008a000e3700000a9c300005f6f0000e9c0000012
:1008b000ca6d000032be0000246c000085bb000041
:1008c0006e6a0000e3b80000a76800004cb60000a4
:1008d000cf660000c0b30000e864000040b1000033
:1008e000f2620000ccae0000ec60000065ac0000dd
:1008f000d75e00000aaa0000b45c0000bda700009b
:10090000825a00007ea50000435800004ca300005e
:10091000f655000029a100009b530000149f000021
:10092000345100000e9d0000c04e0000189b0000d6
:10093000404c000031990000b44900005997000074
:100940001d470000929500007b440000dc930000ee
:10095000ce41000036920000173f0000a190000039
:10096000573c00001d8f00008d390000ab8d00004a
:10097000ba3600004a8c0000df330000fb8a00001a
:10098000fc300000be890000112e00009488000099
:100990001f2b00007c8700002728000076860000bf
:1009a000282500008385000024220000a384000085
:1009b0001a1f0000d68300000b1c00001c830000df
:1009c000f918000076820000e2150000e3810000c3
:1009d000c812000063810000ab0f0000f780000028
:1009e0008c0c00009e8000006b0900005980000004
:1009f0004806000028800000240300000a80000050
:100a00000000000000800000dcfc00000a80000004
:100a1000b8f900002880000095f600005980000019
:100a200074f300009e80000055f00000f780000085
:100a300038ed0000638100001eea0000e381000041
:100a400007e7000076820000f5e300001c83000049
:100a5000e6e00000d6830000dcdd0000a384000097
:100a6000d8da000083850000d9d700007686000020
:100a7000e1d400007c870000efd1000094880000e2
:100a800004cf0000be89000021cc0000fb8a0000da
:100a900046c900004a8c000073c60000ab8d000000
:100aa000a9c300001d8f0000e9c00000a190000054
:100ab00032be00003692000085bb0000dc930000cf
:100ac000e3b80000939500004cb600005a97000070
:100ad000c0b300003199000040b10000189b000035
:100ae000ccae00000e9d000065ac0000149f00001d
:100af0000aaa000029a10000bda700004ca3000025
:100b00007ea500007ea500004ca30000bda700004c
:100b100029a100000aaa0000149f000065ac000093
:100b20000e9d0000ccae0000189b000040b10000fc
:100b300031990000c0b300005a9700004cb6000085
:100b400093950000e3b80000dc93000085bb000033
:100b50003692000032be0000a1900000e9c0000003
:100b60001d8f0000a9c30000ab8d000073c60000fc
:100b70004a8c000046c90000fb8a000021cc00001e
:100b8000bf89000004cf000094880000efd100006e
:100b90007c870000e1d4000076860000d9d70000f1
:100ba00083850000d8da0000a3840000dcdd0000ab
:100bb000d6830000e6e000001c830000f5e300009f
:100bc0007682000007e70000e38100001eea0000d3
:100bd0006381000038ed0000f780000055f0000050
:100be0009e80000074f300005980000095f600001c
:100bf00028800000b8f900000a800000dcfc00003a
:020000040000fa
:100c0000002000000004000002000000ff7ffa0046
:100c10007b2a70004e5d9500448d27000908040072
:100c2000e881c90069ae730098fe88000381030063
:100c300081fe880073986900ae81c90004e809004c
:100c4000088d270095444e005d2a7000fa7bff0056
:100c50007ffa7b002a704e005d9544008d270900c5
:100c60000804e80081c96900ae739800fe8803009b
:100c700081038100fe8873009869ae0081c9040079
:100c8000e80908008d279500444e5d002a70fa009f
:100c90007bff7f00fa7b2a00704e5d0095448d003b
:100ca0002709080004e88100c969ae007398fe00b6
:100cb000880381000381fe008873980069ae81007b
:100cc000c904e80009088d00279544004e5d2a00fc
:100cd00070fa7b00ff7ffa007b2a70004e5d950062
:100ce000448d270009080400e881c90069ae73003b
:100cf00098fe88000381030081fe880073986900d4
:100d0000ae81c90004e80900088d270095444e0013
:100d10005d2a7000fa7bff007ffa7b002a704e008c
:100d20005d9544008d2709000804e80081c9690029
:100d3000ae739800fe88030081038100fe88730073
:100d40009869ae0081c90400e80908008d27950064
:100d5000444e5d002a70fa007bff7f00fa7b2a0078
:100d6000704e5d0095448d002709080004e881005d
:100d7000c969ae007398fe00880381000381fe00fc
:100d80008873980069ae8100c904e80009088d00e5
:100d9000279544004e5d2a0070fa7b00ff7ffa0021
:100da0007b2a70004e5d9500448d270009080400e1
:100db000e881c90069ae730098fe880003810300d2
:100dc00081fe880073986900ae81c90004e80900bb
:100dd000088d270095444e005d2a7000fa7bff00c5
:100de0007ffa7b002a704e005d9544008d27090034
:100df0000804e80081c96900ae739800fe8803000a
:100e000081038100fe8873009869ae0081c90400e7
:100e1000e80908008d279500444e5d002a70fa000d
:100e20007bff7f00fa7b2a00704e5d0095448d00a9
:100e30002709080004e88100c969ae007398fe0024
:100e4000880381000381fe008873980069ae8100e9
:100e5000c904e80009088d00279544004e5d2a006a
:100e600070fa7b00ff7ffa007b2a70004e5d9500d0
:100e7000448d270009080400e881c90069ae7300a9
:100e800098fe88000381030081fe88007398690042
:100e9000ae81c90004e80900088d270095444e0082
:100ea0005d2a7000fa7bff007ffa7b002a704e00fb
:100eb0005d9544008d270000000000000000000048
:100ec0000000000000000000000000000000000022
:100ed0000000000000000000000000000000000012
:100ee0000000000000000000000000000000000002
:100ef00000000000000000000000000000000000f2
:101160000000000000080000060000000000000071
:04117000000000007b
:020000040000fa
:0200000401f009
:04000000f6bf000047
:020000040000fa
:0200000401f009
:04000400ff7f00007a
:020000040000fa
:0200000401f009
:040008007fff000076
:020000040000fa
:0200000401f009
:04001400ffff0000ea
:00000001FF
